:100000000C942A000C9434000C9434000C943400AA
:100010000C9434000C9434000C9434000C94340090
:100020000C9434000C9434000C9434000C94340080
:100030000C9434000C9434000C9434000C94340070
:100040000C9434000C9434000C9434000C94340060
:100050000C94340011241FBECFE5D8E0DEBFCDBF25
:100060000E947A010C9486010C94000020B330E0C9
:10007000A90102C0559547958A95E2F7CA0181709A
:100080009927089592B321E030E002C0220F331F78
:100090008A95E2F7292B22BB089592B321E030E044
:1000A00002C0220F331F8A95E2F72095292322BB35
:1000B000089580E090E00E94420081E090E00E947C
:1000C000420082E090E00E94420084E090E00E94C2
:1000D0003600892B09F44BC080E090E00E9442007A
:1000E00081E090E00E944D0082E090E00E944D008F
:1000F00084E090E00E943600892B09F0DDC08FE09B
:1001000097E20197F1F700C0000080E090E00E94C4
:100110004D0081E090E00E94420082E090E00E9469
:100120004D0084E090E00E943600892B09F0C7C0A2
:100130008FE097E20197F1F700C0000080E090E0C7
:100140000E944D0081E090E00E944D0082E090E02E
:100150000E94420084E090E00E943600892B09F062
:10016000B1C08FE097E20197F1F700C0000085E091
:1001700090E00E943600892B09F44BC080E090E0AB
:100180000E94420081E090E00E944D0082E090E0F9
:100190000E944D0085E090E00E943600892B09F016
:1001A00094C08FE097E20197F1F700C0000080E073
:1001B00090E00E944D0081E090E00E94420082E0C9
:1001C00090E00E944D0085E090E00E943600892B6F
:1001D00009F07EC08FE097E20197F1F700C00000C0
:1001E00080E090E00E944D0081E090E00E944D0090
:1001F00082E090E00E94420085E090E00E9436009C
:10020000892B09F068C08FE097E20197F1F700C0F1
:10021000000086E090E00E943600892B09F45EC061
:1002200080E090E00E94420081E090E00E944D005A
:1002300082E090E00E944D0086E090E00E9436004F
:10024000892B09F04EC08FE097E20197F1F700C0CB
:10025000000080E090E00E944D0081E090E00E946C
:10026000420082E090E00E944D0086E090E00E9413
:100270003600892BC9F58FE097E20197F1F700C0AE
:10028000000080E090E00E944D0081E090E00E943C
:100290004D0082E090E00E94420086E090E00E94E3
:1002A0003600892B21F58FE097E20197F1F700C026
:1002B00000008DE290E0089581E090E0089582E0F2
:1002C00090E0089583E090E0089584E090E0089540
:1002D00085E090E0089586E090E008958DE290E05A
:1002E000089587E090E0089588E090E0089589E01F
:1002F00090E0089581B3876081BB8FEF8ABB0E9435
:1003000059008D3209F48BB38BBBF9CFF894FFCF32
:00000001FF
